:020000040800F2
:10000000180300204D8801088D1F0108B51F010845
:10001000CD1F0108BD1F0108C51F0108D51F01081C
:10002000D51F0108D51F0108D51F0108D51F0108DC
:10003000D51F0108D51F010807860008257700088D
:10004000D51C0108DF1C0108E91C0108F31C01088C
:10005000FD1C0108071D0108111D01081B1D0108D9
:10006000251D01082F1D0108391D0108431D010828
:100070004D1D0108571D0108611D01086B1D010878
:10008000751D01087F1D0108891D0108931D0108C8
:100090009D1D0108A71D0108B11D0108BB1D010818
:1000A000C51D0108CF1D0108D91D0108E31D010868
:1000B000ED1D0108F71D0108011E01080B1E0108B6
:1000C000151E01081F1E0108291E0108331E010804
:1000D0003D1E0108471E0108511E01085B1E010854
:1000E000651E01086F1E0108791E0108831E0108A4
:1000F0008D1E0108971E0108A11E0108AB1E0108F4
:10010000B51E0108BF1E0108C91E0108D31E010843
:10011000DD1E0108E71E0108F11E0108FB1E010893
:10012000051F01080F1F0108191F0108231F0108DF
:1001300000F5E0700268914203D343689A18914237
:1001400002D380680028F5D17047DFF858070168AE
:1001500091B94FF4803181604FF4805141604FF08C
:10016000FF31C16001610421DFF83C274161C2F821
:10017000BC11DFF8381701600120704701F1080356
:1001800013F0070305D001F10803C3F1080303F0DE
:1001900007035918D21A8161C26042F001034B6013
:1001A000511828234B60DFF8FC160969C1617047BC
:1001B0002DE9F84F064601F1080010F0070008BFCE
:1001C000884607D001F10800C0F1080000F00700E0
:1001D00000EB010802F1080010F0070006D002F160
:1001E0000800C0F1080000F0070082181546A5EBD2
:1001F0000800A0EB030903EB080B43F00300C8F869
:100200000400AB4528BF01F00BFA2879C00758BF9E
:1002100001F006FAB9F1100F38BF01F001FAB06928
:10022000854209D1F0684844F060C6F818B040F043
:100230000100CBF804006DE1706985420BD1B06814
:100240004844B060C6F814B040F00101CBF8041087
:1002500040F80B005EE1686800F00301012940F0FE
:10026000AD80C008C0000190C00820283AD2D5F85F
:1002700008A0EF680090BD4208BF01F0D1F95545D4
:1002800008BF01F0CDF968680099C008C000B0EB64
:10029000C10F18BF01F0C4F9009806EBC00000F1CF
:1002A00028018A4507D031698A45C0F08280DAF892
:1002B0000C10A9427DD1574506D1009A3068012122
:1002C00091408843306076E02830874205D030691D
:1002D00087426ED3B868A8426BD1CAF80C70C7F8D1
:1002E00008A068E0EF68D5F818A0AF420CD0A86865
:1002F0003169884223D3C168A94204BFB968A942C1
:100300001DD1C760B8601CE005F11400076837B95B
:1003100005F110000768A7B101E00846076807F17A
:1003200014010A68002A02BF07F110010A68002AB6
:10033000F3D13169884202D30021016001E001F06C
:100340006FF9BAF1000F36D0E86906EB800000F5CE
:10035000987001688D4208D10760A7B9EA69706892
:10036000012191408843706025E03069824508D3BF
:10037000DAF81000A84214BFCAF81470CAF8107056
:1003800001E001F04DF9B7B13069874211D3C7F8E8
:1003900018A0296929B1814226BF39618F6101F016
:1003A0003FF9686938B13169884202D37861876161
:1003B00001E001F035F90198451981446868400869
:1003C000400068604FEAD90549F00100CBF804000D
:1003D00049F80B90202D23D206EBC50000F1280729
:1003E000BA46B9F1100F38BF01F01AF9306820FA97
:1003F00005F1C90704D40121A9400843306006E093
:10040000B868316988422CBF824601F009F9C7F803
:1004100008B0CAF80CB0CBF808A0CBF80C7079E0A3
:100420005FEA192108BF002023D0B1F5803F28BF23
:100430001F201ED2A1F58070000C00F00800814042
:10044000A1F58052120C02F004029140A1F5804304
:100450001B0CC0F10E0003F00203801AC01A994071
:1004600000EBD130C11D29FA01F202F0010101EBCC
:100470004000CBF81C000022CBF81420CBF8102051
:1004800006EB8001726822FA00F3DB0701F5987130
:1004900007D4012303FA00F010437060C1F800B0E4
:1004A0001DE009681F280EBF00204008C0F1190098
:1004B00009FA00F000E011464A68D208D2004A4525
:1004C00014D0C20F01EB820202F1100340001A683F
:1004D000002AF0D1306983421AD3C3F800B0CBF8B8
:1004E0001810CBF80CB0CBF808B013E0326988686C
:1004F000914228BF90420BD3C0F80CB0C1F808B0AD
:10050000CBF80800CBF80C100020CBF8180001E065
:1005100001F086F808F10800BDE8E68F2DE9FA4DF4
:100520000546DFF8800384B0006808B9FFF70DFEC8
:10053000DFF870030499806841182F31401E21EACA
:1005400000000499814280F0A88105F5D876B16851
:1005500039B132688018824280F09F818142C0F0B8
:100560009C8101F065F800281EBF0446D0F8008089
:1005700014F1010F00F091813068716840443060DF
:10058000814238BF01467160A86980BB286908B103
:10059000844200D22C610020F0613461C6F81480DE
:1005A00005F12801BF48006868624FF0FF302862FB
:1005B000002001F10802C9601160801C1031202860
:1005C000D2609260F5D3B848854203D1A8F12802E1
:1005D000214629E055F8040CC00805EBC000A0F145
:1005E000080108EB0400401AA0F128021CE005F500
:1005F000E071084600E08068D0B1026843689A184C
:100600009442F8D1027B120712D4AA6903689A4275
:100610000ED347683B449A420AD208EB0701416077
:10062000E868A96908EB00022846FFF7A7FD1EE16C
:1006300028698442084638BF2C6108EB040100E0B9
:10064000806880B102688A42FAD1017B09070AD426
:1006500004604168414441602146049B284606B03D
:10066000BDE8F04DA4E5AF6939462846FFF760FDC7
:1006700001684068401802902F3800F1080111F01D
:10068000070105D000F10801C1F1080101F00701DF
:10069000081807F11001884234BF009700900098B5
:1006A0000830019004F10801009800F1180A11F0D7
:1006B00007014FF0000BA8F1280005D004F1080154
:1006C000C1F1080101F007010A19401AAA61E860A6
:1006D00040F0010151608018282141607148006993
:1006E000E861019810F0070018BF00F099FF009929
:1006F0001B20486005F5E071B1E80C500198A0E8B6
:100700000C503461C6F81480C6F81CB00198B06172
:10071000029800E08A460722CAF804200AF1040180
:100720000A1D82420BF1010BF4D3BBF1020FB8BFDB
:1007300000F076FF0098B84200F09980C01BC11904
:10074000C4084A68520852004A6040F001017960CA
:10075000C051202C20D205EBC40101F12806B0467F
:10076000102838BF00F05CFF286820FA04F1C907A0
:1007700004D40121A1400843286006E0B06829693B
:1007800088422CBF804600F04BFFB760C8F80C7061
:10079000C7F80880FE606AE0010A08BF002223D083
:1007A000B1F5803F28BF1F221ED2A1F58072120C26
:1007B00002F008029140A1F580531B0C03F00403E2
:1007C0009940A1F58044240CC2F10E0204F0020409
:1007D000D21A121BA14002EBD131CA1D20FA02F33A
:1007E00003F0010202EB4102FA6100237B613B61ED
:1007F00005EB82016B6823FA02F4E40701F59871B6
:1008000005D401209040184368600F601CE009681F
:100810001F2A0EBF00225208C2F1190200FA02F28A
:1008200000E019464B68DB08DB00834210D0D30F91
:1008300001EB830303F1100452002368002BF0D175
:100840002869844211D32760B961FF60BF600EE060
:100850002A698868914228BF904206D3C7608F609A
:10086000B860F9600020B86101E000F0D9FEE868E6
:100870000499814211D2401AE860A969049A521879
:10088000AA6140F001005060049840F00300486005
:1008900006B001F10800BDE8F08D002006B0BDE80B
:1008A000F08D0000ACEF002078E800206859883C0B
:1008B0002DE9F04D0446002688465FEA1820C8F16D
:1008C000000B08BF002123D0B0F5803F28BF1F21B7
:1008D0001ED2A0F58071090C01F008018840A0F536
:1008E0008052120C02F004029040A0F580431B0CD1
:1008F000C1F10E0103F00203891AC91A984001EBF5
:10090000D030C11D28FA01F202F0010101EB4001D3
:1009100004EB8100D0F8300118B31F290EBF00226C
:100920004A08C2F1190208FA02F2002300E052005C
:100930004568ED08ED00A5EB08055D4503D25FEACB
:10094000050B06460BD04569D70F00EB8700002D3D
:1009500000691CBF85422B460028E8D11846B8BB69
:10096000C6BB0120884040004142084361680840FE
:1009700000F0638141420840401E010B01F010016C
:10098000C840420902F00802D040830803F0040383
:10099000D840450805F002055118E8405918C0F341
:1009A000400729443944F840401804EB8000D0F84F
:1009B00030010DE008464168C908C900A1EB0801F3
:1009C00059453CBF8B46064601690029F2D1406972
:1009D0000028F0D1002E00F03081A068A0EB0800C4
:1009E000834580F02A8120698642C0F024817068A6
:1009F000C008C00008EB0B0108EB0605884218BFD1
:100A000000F00EFEAE4280F01681F768D6F818A00E
:100A1000B7420CD0B0682169884223D3C168B14283
:100A200004BFB968B1421DD1C760B8601CE006F1CF
:100A30001400076837B906F110000768A7B101E094
:100A40000846076807F114010A68002A02BF07F187
:100A500010010A68002AF3D12169884202D30021DB
:100A6000016001E000F0DCFDBAF1000F38D0F06960
:100A700004EB800000F5987001688E4209D1076090
:100A8000380014D1F26960680121914088436060A8
:100A900026E02069824508D3DAF81000B04214BF7E
:100AA000CAF81470CAF8107001E000F0B9FDBFB1C7
:100AB0002069874212D3C7F818A0306930B1216984
:100AC000884226BF3861876100F0AAFD706938B19D
:100AD0002169884202D37861876101E000F0A0FDBE
:100AE000BBF1100F0CD208EB0B0040F0030070605C
:100AF00008EB0B008019416841F00101416096E06C
:100B000048F0030070604BF0010068604FEADB00C2
:100B10004BF805B020281DD204EBC00101F12807D5
:100B2000216821FA00F2D207BB4605D4012202FA5D
:100B300000F00843206006E0B868216988422CBFB5
:100B4000834600F06DFDBD60CBF80C50C5F808B0D1
:100B5000EF606CE05FEA1B2108BF002023D0B1F5F5
:100B6000803F28BF1F201ED2A1F58070000C00F02E
:100B700008008140A1F58052120C02F0040291405D
:100B8000A1F580431B0CC0F10E0003F00203801A94
:100B9000C01A994000EBD130C11D2BFA01F202F0CE
:100BA000010101EB4000E86100226A612A6104EB67
:100BB0008001626822FA00F3DB0701F5987106D420
:100BC000012303FA00F0104360600D601CE0096827
:100BD0001F280EBF00204008C0F119000BFA00F0DA
:100BE00000E011464A68D208D2005A4510D0C20F20
:100BF00001EB820202F1100340001A68002AF0D1D2
:100C00002069834211D31D60A961ED60AD600EE0E3
:100C100022698868914228BF904206D3C5608D60E2
:100C2000A860E9600020A86101E000F0F9FC06F18D
:100C30000800BDE8F08D00F0F3FC0020BDE8F08D69
:100C40002DE9F84F04468846606841420840401E3E
:100C5000010B01F01001C840420902F00802D04027
:100C6000830803F00403D840450805F00205511835
:100C7000E8405918C0F3400629447118F040401864
:100C800004EB8000D0F830014168C908C90006466D
:100C9000A1EB080A09E008464168C908C900A1EBB0
:100CA000080151453CBF8A46064601690029F2D138
:100CB00040690028F0D120698642C0F0C480706885
:100CC000C00808EB0A09C00008EB060B484518BF2E
:100CD00000F0A6FC5E4580F0B680F768B569B742C3
:100CE0000CD0B0682169884223D3C168B14204BFE7
:100CF000B968B1421DD1C760B8601CE006F11400AC
:100D0000076837B906F110000768A7B101E0084687
:100D1000076807F114010A68002A02BF07F11001F1
:100D20000A68002AF3D12169884202D300210160B8
:100D300001E000F075FC002D34D0F06904EB800078
:100D400000F5987001688E4209D10760380011D112
:100D5000F2696068012191408843606022E0206967
:100D6000854205D32869B04214BF6F612F6101E04D
:100D700000F056FCB7B12069874211D3BD613069DC
:100D800030B12169884226BF3861876100F048FC94
:100D9000706938B12169884202D37861876101E0C6
:100DA00000F03EFCBAF1100F09D249F00300706068
:100DB00009EB0600416841F0010141603FE048F065
:100DC000030070604AF00100CBF804004AF80BA061
:100DD000D4F808804FEAD805202D28BF00F020FC69
:100DE000B8F1000F27D0D4F81490009504EBC5009B
:100DF00000F128052F46B8F1100F38BF00F010FCA5
:100E00002068009920FA01F2D10705D4009A012147
:100E100091400843206006E0A868216988422CBF01
:100E2000074600F0FDFBC5F80890C7F80C90C9F81C
:100E30000870C9F80C50C4F808A0C4F814B006F142
:100E40000800BDE8F28F00F0EBFB0020BDE8F28F58
:100E50002DE9F04F83B00546C046C046F52DDFF8BA
:100E6000B84780F002810B2D31BF102705F10B0030
:100E7000C708FF002068FE08F04010F0030F42D0C2
:100E8000C04300F00100861904EBC60000F12808F9
:100E9000F700D8F808506868C008C000B84218BF0A
:100EA00000F0BEFBD5F80890454508BF00F0B8FB40
:100EB0004D4508BF00F0B4FB6868C008C000B842E8
:100EC00018BF00F0ADFBC84505D120680121B14035
:100ED000884320600DE02069814508D3D9F80C00D3
:100EE000A84204D1C8F80890C9F80C8001E000F0CD
:100EF00097FB47F00300686078190835416841F0B6
:100F000001014160F9E0A168B94280F0C080002889
:100F100000F0A280012505FA06F149004A42B040DE
:100F20001143084041420840401E010B01F01001EE
:100F3000C840420902F00802D040830803F00403CD
:100F4000D840460806F002065118F0405918C0F380
:100F500040087118414420FA08F000EB010804EB46
:100F6000C80000F128094FEAC80AD9F8086070687B
:100F7000C008C000504518BF00F052FBD6F808B0BA
:100F80004E4508BF00F04CFB5E4508BF00F048FB33
:100F90007068C008C000504518BF00F041FBD9453B
:100FA00005D1206805FA08F1884320600DE020692A
:100FB000834508D3DBF80C00B04204D1C9F808B06F
:100FC000CBF80C9001E000F02BFB47F003007060C1
:100FD000AAEB0708B819019048F001000199486090
:100FE000019848F80080A7684FEAD70ABAF1200FA5
:100FF00028BF00F015FB47B3CDF800A004EBCA00F2
:10100000D4F8149000F1280AD346102F38BF00F00E
:1010100007FB2068009920FA01F2D10705D4009956
:1010200005FA01F10843206007E0DAF808002169B9
:1010300088422CBF834600F0F3FACAF80890CBF838
:101040000C90C9F808B0C9F80CA0C4F8088006F1E3
:1010500008050198606150E06068C0B339462046D9
:10106000FFF7EEFD050012D047E015F1400F28BF55
:101070004FF0FF370BD205F10B00C7086068FF0087
:1010800028B139462046FFF713FC050035D1A0688A
:10109000B8421CD3C11B626910290AD3B818606119
:1010A000A16041F001034360095047F00300506024
:1010B0000AE00021A160616140F0030151608018E5
:1010C000416841F00101416002F1080515E0E06866
:1010D00087420DD2C01BA169E0607A18A26140F07E
:1010E0000100506001F1080547F00300486004E08A
:1010F00039462046FFF712FA0546C046C046284644
:1011000003B0BDE8F08F00B970472DE9F047A0F1BA
:101110000804C046C046DFF8005528698442C0F084
:101120007482616801F00302012A00F06E82CA082D
:101130004FEAC208CA0708EB040936D4226811F046
:10114000030F00F06482A41A84429044C0F05D82D0
:1011500069698C4200F0D880D608202E70D2D4F86D
:101160000CA0A768544508BF00F05AFABC4208BF5B
:1011700000F056FA6068C008C000B0EBC60F18BF98
:1011800000F04EFA05EBC60000F128018F4205D0B1
:1011900029698F4251D3F968A1424ED1BA453DD158
:1011A00028680121B140884328604C4580F02D8299
:1011B000D9F80400C10740F12882810700F17A8143
:1011C000A969894540F0B580E868AC614044E860B1
:1011D00040F00101616069698C4202D100216961BE
:1011E000A960E969814280F01282DFF8300400686A
:1011F00008B9FEF7AAFFA969002900F00882E8688B
:10120000292824BF2846FEF793FFE869E968884249
:1012100080F0FD814FF0FF30E861F8E12830824531
:1012200006D02869824508D3DAF80800A04204D124
:10123000C7F80CA0CAF80870B7E700F0F1F9B4E7F6
:10124000E768A669A7420BD0A168814222D3C8688B
:10125000A04204BFB868A0421CD1CF60B9601BE0B7
:1012600004F114010F6837B904F110010F689FB140
:1012700001E011460F6807F114021368002B02BF4A
:1012800007F110021368002BF3D1814202D3002032
:10129000086001E000F0C4F9002E86D0E06905EB9B
:1012A000800000F5987001688C4209D10760380011
:1012B00011D1E2696868012191408843686074E750
:1012C0002869864205D33069A04214BF776137612F
:1012D00001E000F0A5F9002F3FF467AF28698742CD
:1012E000ABD3BE61216929B1814226BF39618F61CB
:1012F00000F096F9606900283FF457AF29698842E9
:101300009BD37861876150E799F8040000F00300EF
:1013100003287FF44AAFC5F80880D9F804004008D4
:101320004000C9F8040048F00100606048F80480FB
:101330006DE16969894508D1A8686C614044A8607D
:1013400040F001016160005161E1C008C0004FEA56
:10135000D00ABAF1200F804436D2D9F80C70D9F8EF
:101360000860B94508BF00F05BF9B14508BF00F05F
:1013700057F9D9F80400C008C000B0EBCA0F18BF75
:1013800000F04EF905EBCA0000F128018E4206D0AC
:1013900029698E42C0F08180F16849457DD1B7420C
:1013A00006D12868012101FA0AF18843286076E015
:1013B0002830874205D0286987426ED3B8684845EF
:1013C0006BD1F760BE606AE0D9F80C70D9F818608C
:1013D0004F450DD0D9F808002969884223D3C16848
:1013E000494504BFB96849451DD1C760B8601CE0D4
:1013F00009F11400076837B909F110000768A7B1AF
:1014000001E00846076807F114010A68002A02BFD4
:1014100007F110010A68002AF3D12969884202D332
:101420000021016001E000F0FBF8002E37D0D9F870
:101430001C0005EB800000F59870016889450AD111
:101440000760380012D1D9F81C206868012191404A
:101450008843686023E02869864205D3306948459F
:1014600014BF7761376101E000F0DAF8BFB1286995
:10147000874212D3BE61D9F8101029B1814226BF2C
:1014800039618F6100F0CCF8D9F8140038B12969BE
:10149000884202D37861876101E000F0C1F848F02A
:1014A0000100606048F80480686984420BD1C5F887
:1014B0000880ACE040084000C9F8040048F0010092
:1014C000606048F804804FEAD807202F22D205EB4D
:1014D000C70000F128094E46B8F1100F38BF00F0E0
:1014E0009FF8286820FA07F1C90704D40121B94000
:1014F0000843286007E0D9F80800296988422CBF12
:10150000064600F08DF8C9F80840F460A660C4F8FB
:101510000C907CE05FEA182008BF002123D0B0F5D2
:10152000803F28BF1F211ED2A0F58071090C01F059
:1015300008018840A0F58052120C02F0040290408D
:10154000A0F580431B0CC1F10E0103F00203891AC0
:10155000C91A984001EBD030C11D28FA01F202F0FF
:10156000010101EB4001002262612261E16105EBB2
:1015700081006A6822FA01F3DB0700F5987006D44F
:10158000012303FA01F11143696004601CE0006863
:101590001F290EBF00214908C1F1190108FA01F104
:1015A00000E010464268D208D200424510D0CA0F6F
:1015B00000EB820202F1100349001A68002AF0D100
:1015C00029698B4211D31C60A061E460A4600EE025
:1015D0002A698168904228BF914206D3CC6084601A
:1015E000E060A1600020A06101E000F019F8286A25
:1015F000401E28620BD1D5F8C80100E080680028A1
:10160000FCD14FF0FF30286201E000F009F8C0463D
:10161000C046BDE8F087000078E80020ACEF00206D
:10162000012000F01BB80268531C03601170704762
:101630000749086808B1002070470648C008C00084
:1016400008600549C908C900091A0160704700BF50
:1016500090F000201F0300201863002080B5C046D2
:10166000C046024A11001820ABBEFBE7260002006C
:10167000FA970108FA970108FB970108EE9701080D
:10168000F0970108F0790108F2970108F497010832
:1016900044540108F6970108F8970108D090010812
:1016A000D8910108DC91010860610108E09101080E
:1016B000E4910108D0670108E0910108E891010870
:1016C00090610108EC910108F09101089C5A010811
:1016D000D8910108F49101089C470108E0910108A4
:1016E000F8910108384F0108FC91010800920108A7
:1016F00060640108EC9101080492010860900108FF
:10170000089201080C920108987F0108D8910108FD
:1017100010920108B8640108FC91010814920108B4
:10172000BC760108189201081C9201081C6C010883
:101730002092010824920108D0850108289201080E
:101740002C920108D84F0108309201083492010808
:10175000BC5E0108389201083C92010870900108B3
:101760004092010844920108FC7201081892010895
:1017700048920108D4760108389201084C92010879
:101780009C9701083092010850920108844001089A
:10179000549201085892010880900108549201085F
:1017A0005C920108EC7601086092010864920108DD
:1017B0004C520108609201086892010850550108D6
:1017C0006C92010870920108D44C01086C920108D7
:1017D000749201089C4A0108789201087C920108E1
:1017E000583B01088092010884920108FC480108D6
:1017F000889201088C920108F87F010890920108F4
:101800009492010868510108809201089892010899
:10181000DC730108889201089C920108F8730108A2
:1018200090920108A092010828800108789201088E
:10183000A49201087C42010880920108A892010844
:10184000784C010880920108AC920108706601088A
:10185000B0920108B4920108846D0108B8920108A1
:10186000BC920108A4970108C0920108C492010823
:1018700050560108C8920108CC920108885401080A
:10188000D0920108D4920108B0620108B092010818
:10189000D89201087C770108B8920108DC9201080F
:1018A000A8900108C0920108E0920108E0620108D6
:1018B000D0920108E492010888800108D0920108C2
:1018C000E89201083C860108D0920108EC920108D8
:1018D000A0740108F0920108F4920108C47701088D
:1018E000F8920108FC9201085C4B01080093010882
:1018F000049301089C660108089301080C930108F1
:10190000945C0108F892010810930108B84301089B
:101910000893010814930108B451010818930108B1
:101920001C930108E8900108F8920108209301082F
:10193000B49701080893010824930108F46601088C
:10194000F092010828930108E88001081893010823
:101950002C93010818810108F892010830930108BE
:10196000DC5201080893010834930108A0630108C0
:10197000389301083C930108286A01084093010844
:1019800044930108B4860108489301084C93010868
:10199000286001085093010854930108C86E01089B
:1019A000589301085C93010854780108609301087A
:1019B00064930108106F0108689301086C93010893
:1019C0001448010870930108749301081C4301082E
:1019D000689301087893010824530108589301087B
:1019E0007C93010810570108809301088493010833
:1019F000AC5D010870930108889301087C3A0108E6
:101A0000609301088C9301082891010868930108EC
:101A100090930108EC3E0108589301089493010843
:101A200068810108809301089893010818720108E1
:101A3000709301089C9301081851010868930108EC
:101A4000A0930108FC780108A4930108A893010859
:101A500088850108AC930108B09301084476010819
:101A6000B4930108B8930108C0610108B493010858
:101A7000BC930108D45A0108C0930108C49301081B
:101A800090570108C8930108CC930108047A010813
:101A9000D0930108D493010894850108D8930108D4
:101AA000DC930108B06B0108AC930108E0930108D6
:101AB00074760108B4930108E49301085472010894
:101AC000B4930108E89301088C760108EC930108AF
:101AD000F0930108545E0108D0930108F4930108C3
:101AE0002C7A0108F8930108FC930108884F01083B
:101AF000009401080494010808580108089401089A
:101B00000C940108B8850108109401081494010888
:101B100018700108189401081C940108C485010874
:101B20001894010820940108F86B01082494010816
:101B300028940108F06101082C94010830940108F0
:101B4000445801082C94010834940108F8670108EE
:101B5000389401083C9401089897010840940108C2
:101B600044940108406C0108489401084C94010811
:101B7000689001085094010854940108E07201082B
:101B8000589401085C940108B87F0108609401082A
:101B900064940108646C0108609401086894010869
:101BA000E46401082C9401086C940108F05E0108BB
:101BB00038940108709401081055010874940108C4
:101BC0007894010820620108509401087C9401086F
:101BD0007890010880940108849401081873010822
:101BE000889401088C940108245F010888940108F6
:101BF0009094010870680108949401089894010871
:101C0000A09701089C940108A0940108245F010892
:101C1000A4940108A894010868650108AC9401081F
:101C2000B09401086C730108B4940108B8940108D9
:101C300080580108BC940108C0940108D87F0108AD
:101C4000BC940108C49401089465010880940108BB
:101C5000C89401088873010888940108CC9401088D
:101C6000BC58010888940108D0940108C065010897
:101C700094940108D4940108889001089C94010868
:101C8000D8940108E8850108A4940108DC940108AF
:101C900058700108AC940108E0940108A47301088D
:101CA000B4940108E4940108E44E0108BC940108CE
:101CB000E894010804770108BC940108EC94010839
:101CC000EC650108F0940108F4940108285001081B
:101CD000F8940108FC9401081C4C010800950108C7
:101CE0000495010894520108089501080C95010813
:101CF000B45B01081095010814950108D05501083E
:101D0000189501081C950108F46C0108209501083C
:101D100024950108C0730108289501082C95010835
:101D2000787001082895010830950108B87A0108F3
:101D30003495010838950108008601083C95010892
:101D400040950108CC7A010844950108489501089E
:101D5000188001084C95010850950108F8580108B1
:101D600018950108549501084C7701081895010849
:101D70005895010818860108209501085C9501080E
:101D80001474010828950108609501085062010843
:101D90002895010864950108C06801086895010844
:101DA0006C95010818660108F894010870950108FF
:101DB000307401080095010874950108C05F01089E
:101DC0000895010878950108806201083C95010892
:101DD0007C950108606D0108109501088095010847
:101DE000989001081895010884950108E07A010887
:101DF0001895010888950108105601088C9501086E
:101E000090950108106901089495010898950108BA
:101E1000F47A0108949501089C950108245C010856
:101E2000A0950108A49501085C5C0108A89501082B
:101E3000AC95010848800108B0950108B4950108E7
:101E400058800108B8950108BC950108CC6D0108BF
:101E5000C0950108C4950108A0900108C895010823
:101E6000CC950108087B01088C950108D0950108E4
:101E70009477010894950108D49501081C7B01080A
:101E800094950108D895010868740108A095010887
:101E9000DC950108B0900108A8950108E0950108BB
:101EA000B8900108B0950108E4950108D8700108C0
:101EB000B8950108E8950108AC970108C09501089C
:101EC000EC950108307B0108F0950108F4950108B4
:101ED000C8900108F8950108FC950108447B0108A9
:101EE0000096010804960108DC77010808960108AD
:101EF0000C9601086069010808960108109601080F
:101F0000D87401081496010818960108F8700108A1
:101F10001C96010820960108D89001082496010813
:101F200028960108488601082C9601083096010879
:101F3000F47701083496010838960108E09001080A
:101F40003C960108409601089880010824960108F3
:101F500044960108387101082C960108489601083A
:101F6000106301084C96010850960108F45F0108BF
:101F700054960108589601080C7801085C960108EF
:101F800060960108548601080896010864960108C5
:101F9000A88001080896010868960108C880010811
:101FA0001C9601086C960108B06901083496010876
:101FB00070960108D8800108749601087896010887
:101FC0006C7B01085C9601087C9601080091010871
:101FD0005C96010880960108608601080096010859
:101FE000849601086C860108089601088896010805
:101FF000807B0108089601088C960108F88001088A
:102000001C96010890960108B89701083C960108B3
:1020100094960108D8690108249601089896010849
:10202000706301089C960108A0960108DC44010831
:102030004C960108A4960108D44901083496010879
:10204000A89601089871010874960108AC960108D9
:102050003C7801085C960108B096010818910108C7
:102060005C960108B4960108386E0108B89601081C
:10207000BC9601085C6E0108C0960108C496010870
:10208000AC590108C0960108C8960108506A0108B9
:10209000CC960108D096010838810108D496010831
:1020A000D896010848810108DC960108E0960108ED
:1020B00058810108E4960108E8960108947B01081C
:1020C000E4960108EC9601083C5D0108F0960108D1
:1020D000F496010820910108F8960108FC96010881
:1020E000E85901080097010804970108F84501081C
:1020F000089701080C970108EC6E01081097010879
:102100001497010820670108189701081C97010817
:10211000844D01082097010824970108786A010876
:10212000289701082C970108A06A01083097010838
:102130003497010848750108389701083C97010851
:10214000CC540108F8960108409701086C45010835
:10215000F8960108449701080052010820970108E9
:10216000489701086C5301084C97010850970108E3
:10217000DC4D01083097010854970108C86A01082E
:102180003897010858970108C4600108F0960108C3
:102190005C970108BC7B0108F8960108609701086C
:1021A0006C780108F896010864970108F871010835
:1021B0000097010868970108C4970108089701086B
:1021C0006C97010830910108109701087097010879
:1021D000E45D010818970108749701084C6701082D
:1021E000789701087C970108D841010828970108D1
:1021F000809701086C4901084C97010884970108F1
:10220000E47B0108889701088C9701088881010800
:102210003897010890970108FC8601083897010853
:1022200094970108186B0108D0880108D888010824
:10223000986F0108E0880108E88801085C760108C9
:10224000F0880108F88801080C5B0108F088010893
:10225000008901088C6B01080889010810890108B0
:10226000B86F0108D088010818890108887F010823
:10227000E088010820890108A08501082889010853
:1022800030890108187A0108F088010838890108A6
:10229000445B0108F088010840890108D86F0108F3
:1022A00048890108508901088C640108588901088F
:1022B00060890108D46B01086889010870890108E8
:1022C000AC8501086889010878890108547A0108F9
:1022D0008089010888890108A4760108808901089D
:1022E00090890108A87F010898890108A089010840
:1022F0008C720108A8890108B0890108687A010870
:10230000B8890108C0890108A8720108C8890108B4
:10231000D089010838700108D8890108E0890108CE
:10232000885E0108D8890108E8890108C47201089B
:10233000F0890108F889010820680108008A01086D
:10234000088A010848680108108A0108188A0108EB
:102350007C7A0108B8890108208A0108886C010884
:10236000C8890108288A010810650108308A010817
:10237000388A010834730108408A0108488A010834
:1023800050730108508A0108588A01083C65010809
:10239000608A0108688A0108DC850108708A0108E2
:1023A000788A010898680108308A0108808A010843
:1023B000907A0108408A0108888A0108A47A0108F5
:1023C000508A0108908A0108AC6C0108988A0108BB
:1023D000A08A0108E87F0108708A0108A88A01081C
:1023E00090550108B08A0108B88A01084C440108D8
:1023F000B08A0108C08A0108FC4A0108C88A01089D
:10240000D08A01082C4D0108D88A0108E08A010809
:10241000D06C0108E88A0108F08A01081C770108DD
:10242000F88A0108008B01080C860108088B010856
:10243000108B010808800108188B0108208B010807
:1024400034770108D88A0108288B01089090010888
:10245000E88A0108308B010898700108388B010860
:10246000408B010824860108B08A0108488B0108C6
:10247000EC5B0108B08A0108508B01084466010832
:10248000C88A0108588B010834590108088B0108D3
:10249000608B0108E8680108D88A0108688B010888
:1024A00038800108708B0108788B01086477010877
:1024B000808B0108888B010838690108908B01081E
:1024C000988B0108B8700108908B0108A08B010857
:1024D000A86D0108A88B0108B08B01084C74010895
:1024E000708B0108B88B010830860108808B0108C9
:1024F000C08B0108A8970108908B0108C88B0108C0
:1025000084740108908B0108D08B01086880010851
:10251000A88B0108D88B0108AC770108E08B010873
:10252000E88B010878800108F08B0108F88B01081E
:10253000B0970108008C0108088C0108BC740108E0
:10254000108C0108188C010888690108208C01088A
:10255000288C0108F4740108208C0108308C0108D3
:1025600010750108388C0108408C010818710108A9
:10257000208C0108488C0108BC4B0108208C010804
:10258000508C010890560108388C0108588C0108BD
:10259000CC5C0108608C0108688C0108406301086C
:1025A000008C0108708C0108B8800108108C0108AB
:1025B000788C0108F0900108808C0108888C010853
:1025C00058710108608C0108908C0108F89001088E
:1025D000008C0108988C010808810108108C010802
:1025E000A08C0108BC970108A88C0108B08C0108D8
:1025F00008910108208C0108B88C01087850010866
:10260000208C0108C08C0108006A0108C88C0108F0
:10261000D08C0108C0970108D88C0108E08C010813
:1026200070590108E88C0108F08C010878710108E4
:10263000F88C0108008D010810910108088D01082F
:10264000108D010890860108188D0108208D010861
:102650009C860108188D0108288D0108247801083E
:10266000808C0108308D0108146E0108608C01080F
:10267000388D0108A8860108408D0108488D0108A1
:10268000045D0108508D0108588D0108C0860108BD
:10269000608D0108688D0108B8710108608D01081E
:1026A000708D0108806E0108788D0108808D010809
:1026B000A46E0108888D0108908D0108D06301087F
:1026C000988D0108A08D0108CC860108A88D01080D
:1026D000B08D0108D8710108B88D0108C08D0108BE
:1026E000D8860108C88D0108D08D0108384A010834
:1026F000C88D0108D88D0108245A0108E08D010811
:10270000E88D010800640108F08D0108F88D0108CA
:10271000745D0108A88D0108008E01085C60010845
:10272000E08D0108088E0108C8500108108E0108CC
:10273000188E010890600108F08D0108208E0108B4
:10274000B4530108A88D0108288E0108788101087A
:10275000B88D0108308E0108D07B0108388E010841
:10276000408E010884780108C88D0108488E010850
:1027700030640108C88D0108508E0108F06A010814
:10278000588E0108608E0108FC530108688E01080C
:10279000708E01082C610108788E0108808E010876
:1027A00038910108888E0108908E0108CC780108C4
:1027B000988E0108A08E0108E4860108988E010811
:1027C000A88E0108A4670108108E0108B08E0108C8
:1027D000E4780108F08D0108B88E0108F086010840
:1027E000C08E0108C88E01087C5B0108D08E0108EC
:1027F000D88E0108CC570108E08E0108E88E010848
:10280000F86F0108F08E0108F88E01087072010857
:10281000008F0108088F0108C87F0108008F010898
:10282000108F0108585F0108188F0108208F0108D8
:102830008C5F0108288F0108308F0108F48501089A
:10284000388F0108408F0108186D0108188F0108A2
:10285000488F01083C6D0108508F0108588F01080E
:10286000C0900108608F0108688F0108C8660108E0
:10287000708F0108788F0108587B0108608F01086C
:10288000808F01082C750108888F0108908F01083E
:10289000F06D0108988F0108A08F010828810108B8
:1028A000A88F0108B08F010878860108B88F010849
:1028B000C08F0108D0560108C88F0108D08F0108C9
:1028C000A87B0108B88F0108D88F0108F8600108BB
:1028D000E08F0108E88F010878670108C88F0108B8
:1028E000F08F0108346F0108F88F0108009001088B
:1028F0004091010808900108109001089C78010897
:102900001890010820900108407A010828900108D9
:102910003090010884860108389001084090010831
:10292000B47801082DE9F04F80460FF23060A5B071
:1029300015461E46D0E90023CDE91223002004915C
:102940000D900DF1500A6FF0004900E0651900206C
:10295000ADF8020012AB4FF0FF3229460DF1020034
:1029600001F093F80446012C04DA2878441EA441AF
:10297000E443E40FBDF8020025280CBFA4F1010BCD
:10298000A346BBF1010F0EDB2F4617F8011B04987D
:10299000C0470028049000F0F3800D98401CBBF164
:1029A000010B0D90F1D1BDF80200252807D10020C0
:1029B0000790089009900A900B900C9005E0002871
:1029C000C4D10D98D2E240F0010015F8011F202972
:1029D000F9D023290DD02B2904D02D2906D0302958
:1029E0000AD00CE040F0020080B2EEE740F00400B4
:1029F000FAE740F00800F7E740F01000F4E72A2972
:102A00000ED13168316051F8042B3160002A0F92E9
:102A100004D5514240F004000F9180B26D1C11E0CA
:102A200000210F9109E00F99494505D001EB810381
:102A300002EB430130390F916D1C2A78A2F130016D
:102A40000A29F0D329782E2903D04FF0FF310E91B7
:102A50001DE015F8011F2A2907D1316831606D1C6E
:102A600051F8042B31600E9211E000210E9109E023
:102A70000E99494505D001EB810302EB4301303942
:102A80000E916D1C2A78A2F130010A29F0D3ADF81D
:102A900040000FF2D040297801F008F808B115F88D
:102AA000010B8DF842009DF84200682802BF29788A
:102AB0006829622005D06C2804BF28786C2803D1CF
:102AC00071208DF842006D1C14A8069015F8014B7A
:102AD000B4F125002AD01C3800F0D480001F022851
:102AE00040F2D080133800F0F580093800F0CA8039
:102AF000801E00F05C81401E00F03581401E0228DF
:102B000040F2C080001F00F02E81401F00F08B803B
:102B1000401E00F0DF80401E35D0C01E0BD0801E4E
:102B200000F0D880C01E00F0D58063E125208DF82C
:102B30005000012067E19DF842006C283068306049
:102B400014D050F8047B306005970E9C002C04D5FF
:102B5000384600F0B7FF044606E02246002138461A
:102B600000F0CCFF00B1C41B08944DE150F8042BD9
:102B7000306002A9404600F033FA002840F1448159
:102B80004FF0FF30F2E1316831603C2451F8040B22
:102B900031600021CDE9020114A80590DDE90201B0
:102BA000069F11B908B90E9AB2B10206120FA0EB36
:102BB00002123032D2B2631E3A2AA8BF273200096D
:102BC000DA5540EA0170090908BF00281C4603D005
:102BD000059AE3199A42E8D3E0190590C4F13C0143
:102BE0000E980891814209DA401A0A904FF6EF7167
:102BF000BDF840000840ADF8400005E1002840F174
:102C000003819DF8400000F01400102840F0FC8083
:102C10000F98079A801A0A9A801A441A012CC0F257
:102C2000F3800A94F0E09DF8420062281AD06828E8
:102C300006D06A280CD06C281CD0712808D019E066
:102C40003068306050F8041B30600D980880DBE07D
:102C50003068306050F8042B30600D98C117C2E91D
:102C60000001D1E03068306050F8041B30600D98EE
:102C70000870C9E03068306050F8041B30600D986F
:102C80000860C1E03068C01D20F007023260D2E960
:102C9000000108323260CDE90201002902D507980F
:102CA0002D210AE0BDF84000810702D507982B21AD
:102CB00003E0C00705D50798202100F80A10401C42
:102CC000079014A8079908180590214602A800F05B
:102CD00091FB99E09DF842006C280DD0712818BF37
:102CE0006A2809D13068C01D20F007023260D2E99D
:102CF00000010832326005E03168316051F8040BA0
:102D000031600021CDE902019DF84200682803D11D
:102D1000DDE9020180B20BE0622803D1DDE90201A6
:102D2000C0B205E0742818BF7A2804D1DDE9020199
:102D30000021CDE902019DF8400000072ED5DDE914
:102D40000201002908BF002828D044F0200078287C
:102D500024D10798302100F80A10401C411C07912B
:102D600000F80A401AE09DF84200314600F001F9EF
:102D7000CDE90201002902DA07982D210AE0BDF809
:102D80004000810702D507982B2103E0C00705D535
:102D90000798202100F80A10401C079014A80799F2
:102DA00008180590214602A800F0A0FA2CE09DF832
:102DB00042006C2809D0012007903068306050F83C
:102DC000041B30608DF850101EE03068306001AA9E
:102DD00050F8041B3060ADF804100020ADF8060078
:102DE00002A94FF0FF300E90404600F0F9F800289D
:102DF0000AD5C5E625208DF85000012007901CB1AA
:102E00008AF80140022007900F980799401A0A9902
:102E1000401A0899401A0B99401A0999401A0C99BE
:102E2000441A9DF84000400710D42020012C8DF852
:102E300000000BDB274601236A4602A9404600F04A
:102E400000FE00287FF49CAE7F1EF4D1DDF81CB09C
:102E5000BBF1000F14AF0DD017F8011B0498C04749
:102E6000002804903FF48CAE0D98401CBBF1010B80
:102E70000D90F1D130208DF800000A9F012F0ADB60
:102E800001236A4602A9404600F0DBFD00287FF4DA
:102E900077AE7F1EF4D1DDF820B0059FBBF1000FA7
:102EA0000DD017F8011B0498C047002804903FF488
:102EB00067AE0D98401CBBF1010B0D90F1D1302095
:102EC0008DF800000B9F012F0ADB01236A4602A93F
:102ED000404600F0B6FD00287FF452AE7F1EF4D1CC
:102EE00005980899DDF824B00F18BBF1000F0DD03C
:102EF00017F8011B0498C047002804903FF440AE27
:102F00000D98401CBBF1010B0D90F1D130208DF8D4
:102F100000000C9F012F0ADB01236A4602A94046EC
:102F200000F08FFD00287FF42BAE7F1EF4D19DF8BA
:102F3000400040077FF50BAD2020012C8DF80000EC
:102F4000FFF605AD01236A4602A9404600F079FD6F
:102F500000287FF415AE641EF4D1F8E400000000F0
:102F600000000000686A6C747A4C000025B0BDE86F
:102F7000F08F622826D068281DD06A2808D06C28D7
:102F800027D0712804D0742823D07A280CD020E0D0
:102F90000868C01D20F007000860D0E90023083051
:102FA00008601946104670470A680A6052F8040B18
:102FB0000A60002170470A680A6052F8040B0A6030
:102FC00000B20BE00A680A6052F8040B0A6040B2D3
:102FD00004E00A680A6052F8040B0A60C1177047DF
:102FE0002DE9F44F0D4694B0D5F830A0BAF1000F9A
:102FF000804648BF6FF0004A00F0ACFD696B401896
:1030000001900FF66C20D0E90023CDE9022395F85A
:103010003800400702D40198412805D240200DF124
:1030200010090190002609E0FDF712FF5FEA000990
:10303000F8D14FF0FF3056E1AAEB040ABAF1010FC4
:10304000C0F2CE801498018802AA0DF1010000F0B0
:1030500086FD0028044600F1DE801498008810B92F
:10306000641E00F1D880A245C0F2BA806869019957
:103070002218914280F0A2806E634042296A401A71
:10308000A969401A696A401AE969401AA96A461A88
:1030900095F83800400710D42020012E8DF800004C
:1030A0000BDB374601236A462946404600F0C9FC3F
:1030B000002840F0B0807F1EF4D1D5F814B0BBF1E9
:1030C000000F4F460DD017F8011BA868C047002815
:1030D000A86000F0A080E86A401CBBF1010BE86228
:1030E000F1D130208DF800002F6A012F0ADB012377
:1030F0006A462946404600F0A4FC002840F08B8038
:103100007F1EF4D1D5F818B0EF68BBF1000F0CD0DA
:1031100017F8011BA868C0470028A8607BD0E86AA0
:10312000401CBBF1010BE862F2D130208DF80000A9
:103130006F6A012F09DB01236A462946404600F0E9
:1031400080FC002867D17F1EF5D1E868A969D5F811
:103150001CB00F18BBF1000F0CD017F8011BA868AA
:10316000C0470028A86056D0E86A401CBBF1010B9C
:10317000E862F2D130208DF80000AF6A012F09DB40
:1031800001236A462946404600F05BFC002842D1F4
:103190007F1EF5D195F8380040070DD52020012E6F
:1031A0008DF8000008DB01236A462946404600F0FE
:1031B00048FC80BB761EF6D100266E612246686907
:1031C0000DF10101484400F0D7FC686920186861DE
:1031D0001498801C1490801E008800287FF42CAF67
:1031E000686B6969401A296A401AA969401A696AB4
:1031F000401AE969401AA96AA0EB010A95F838005B
:10320000400710D4BAF1010F0DDB5446A868202105
:10321000C047A86010B94FF0FF365DE0E86A401C77
:10322000641EE862F2D16B694A462946404600F0C6
:1032300008FC0028EFD12C6A012C0ADBA868302199
:10324000C0470028A860E6D0E86A401C641EE86217
:10325000F4D1AB69EA682946404600F0F2FB002849
:10326000D9D16C6A012C0ADBA8683021C04700283C
:10327000A860D0D0E86A401C641EE862F4D1E86817
:10328000A969EB690A182946404600F0DAFB0028D4
:10329000C1D1AC6A012C0ADBA8683021C0470028E4
:1032A000A860B8D0E86A401C641EE862F4D195F8C2
:1032B000380040070ED5BAF1010F0BDBA8682021BA
:1032C000C0470028A860A6D0E86A401CBAF1010AED
:1032D000E862F3D16E616E6304A881451CBF484665
:1032E000FDF711FF304615B0BDE8F08F2DE9FA4E1D
:1032F00005460A462F696F2A08BF082405D041F009
:103300002000782814BF0A2410243C26D5E90001A7
:10331000642A18BF692A81468A4605D1002903DA42
:10332000D9F100096AEB4A0ABAF1000F08BFB9F1F6
:10333000000F0CD1286B50B9082C36D195F8380005
:10334000000732D530203B2687F83B002DE0E317FD
:1033500048465146224600F04BFCA4FB0023A9EB53
:1033600002023032D2B2A6F1010B3A2A5E4603DBEA
:103370009DF80030513B9A180BF8072081465FEA10
:10338000010A08BFB9F1000F03D0E868F1198842BB
:10339000DDD3082C09D195F83800000705D5F05D7C
:1033A000302802D0761E3020F055C6F13C00A861CE
:1033B000F119E960296B884208DA081A28624FF689
:1033C000EF71288F08402887BDE8F38E00290ED5BD
:1033D00095F8381001F01401102908D1696B6A6959
:1033E000891A2A6A891A0E1A012EA8BF2E62BDE810
:1033F000F38E00002DE9F24F04468EB0D4E90001AF
:10340000CDE9020104AF9DF8380040F0200BBBF17C
:10341000610F0AD0206B002848BF062004D408BFE3
:10342000BBF1670F01D1012020636168C1F30A502D
:1034300040F2FF7290421CD1080304BF20680028AC
:1034400009D10320A0619DF8380061381A2836D3CD
:103450000FF2306108E00320A0619DF83800613868
:103460001A2829D30FF21461E068032200F084FBCC
:10347000BEE1012816DA204600F031FC012811DBFC
:1034800000250020BBF1610F20D1E168302201F856
:10349000012B4A1CE2609DF83820612A0CBF78227B
:1034A00058220FE0626840F2FE3161F31E52451A65
:1034B00062604FF0FF30E5E70FF2BC51D4E70FF246
:1034C000C051D1E70A706169891C616110B9002699
:1034D000002584E1BBF1610F40F09880206B00284B
:1034E0004CBF2126461CD4E900ABDDE902010022D5
:1034F000002300F015FC36B23ABF8BF00040CDE956
:1035000002A0CDE902AB06F101082D1FB8F1010FB1
:103510008DF810200DF1110736DBDDE902010022E4
:10352000002300F015FC2FD21C2102A800F028FC7B
:10353000DDE9020100F0AAFCA8F10708B8F1010FCB
:10354000814609DB00F0CEFC02460B46DDE90201B4
:1035500000F0E0FCCDE90201F81D072105E009F0CB
:103560000F0200F8012D4FEA2919B9F1010F01DB13
:10357000491EF4D5491E5CBF002200F8012DF9D583
:10358000C71DB8F1010FC8DA0DF11100391AB142A7
:10359000B8BF0E4636B230000DF111072FD4884265
:1035A00006DA04A9411849780829A8BF0F2100DAD2
:1035B000002104AA821800E0761E12F80139401E8C
:1035C0008B42F9D00F2904D104A941184A78521C22
:1035D0004A70002802D504AF761C2D1D36B2701E2D
:1035E0000DD4C1190A783032D2B23A2A03DB9DF8E1
:1035F00038303A3B9A18401E01F80129F2D5206B69
:10360000002840F1EC80701E2063E8E0DDE9020153
:103610000022002300F084FB3CBF81F00041CDE993
:1036200002012DB247F2975068434B49DFF82C91C5
:1036300090FBF1F52DB2C5F1070ABAF1010F9046E2
:103640001CDBDDE902675FEACA7007D542464B46DC
:103650003046394600F01EFD06460F4640464946B4
:1036600042464B464FEA6A0A00F014FDBAF1000FD9
:1036700080468946E7D1CDE9026724E0CAF1000A15
:103680000026374F14E05FEACA7007D542464B4622
:103690003046394600F0FEFC06460F464046494695
:1036A00042464B4600F0F6FC4FEA6A0A80468946DD
:1036B000BAF1000FE7D1DDE9020132463B4600F0E6
:1036C000BBFDCDE90201BBF1660F0CBF05F10A009D
:1036D0000620216BDFF88C904618142EA8BF132605
:1036E00030208DF810000DF11107012E3CDBDDE9D3
:1036F000020100F0E1FB07F1080104220A23B0FBFC
:10370000F3F303EB8307A0EB4700303001F8010C23
:103710000A20B3FBF0F000EB8007A3EB4703303344
:10372000521E01F8023DE9D1083E012E01F10807C1
:10373000DBDBDDE9020100F0BFFB00F0DDFB024650
:103740000B46DDE9020100F0E5FB00224B4600F0EC
:10375000A1FCCDE90201CAE7A086010000002440D7
:103760000000F03F84D797410DF11100381A0DF198
:10377000110702E0401E6D1E7F1C39783029F9D0F8
:10378000BBF1660F02D12DB2691C04E0BBF1650FDD
:103790000CBF01210021226B8E1836B2B042B8BF97
:1037A000064636B231001AD4814204DAC85D3528A3
:1037B000A8BF392000DA3020CA19521E00E0761E58
:1037C00012F80139491E8342F9D0392802D1C85D67
:1037D000401CC855002902D57F1E761C6D1C2DB2D9
:1037E0009DF83810009533B23A46204600F003F8B1
:1037F0000FB0BDE8F08F2DE9F04786B006468A4647
:1038000090461D4600F061FE012D406A376B90F82E
:10381000009002DA01250FF270284AF02000BDF96D
:103820003840662808BF641C12D0672876D114F18E
:10383000040F79DBBC4277DA96F83800641C000785
:1038400002D4BD42B8BF2F4624B23F1B48BF002759
:1038500024B2F068B169012C21DA4A1C30230B54E0
:10386000012F03DA96F83810090702D502F8009004
:10387000521CB261E742B8BF7C4224B26142E719F0
:103880007162AF42B8BF3D46B3692DB2F5612A46B9
:103890004146181800F070F9781BB062BAE00818B9
:1038A000A54216DA2A46414600F066F9B169691860
:1038B000601B012FB161706203DA96F838000007CF
:1038C00005D5F06801F80090F069401CF061B7621E
:1038D000A0E02246414600F04FF9B06920182D1BA8
:1038E000012F03DA96F83810090703D5F16800F8BC
:1038F0000190401C2DB2B061AF42B8BF3D46F068A8
:10390000B3692DB22A4604EB0801181800F034F907
:10391000B0692818B061781B70627BE0BAF1610F62
:1039200014D14FF0700A16E0BD4204DA96F8381050
:10393000090758BF2F467F1E48BF0027BAF1670FFF
:1039400014BF4FF0450A4FF0650A04E0BAF1410F89
:1039500008BF4FF0500AB169F0684A1CB261012FEC
:1039600018F8013B0B5403DA96F83810090715D5FF
:10397000531CB36102F80090012F0FDB6D1E2DB2B6
:10398000AF42B8BF3D462DB22A464146181800F056
:10399000F3F8B0692818B061781B7062F068B169FB
:1039A0000918200081F800A004D42B20487001F1F0
:1039B000020804E02D224A7001F102086442002549
:1039C00002AF08E00A22684600F098FD019807F867
:1039D000010B6D1C009C21B20129F3DA022D06DADD
:1039E0004AF02000652804BF302008F8010B4DB9CB
:1039F000302008F8010B07E06D1E02A8285C30306B
:103A000008F8010B012DF7DAF068B1690818A8EB86
:103A10000000F06196F8380000F0140010280DD175
:103A20007069B1690818716A0818F1690818B16AF3
:103A30000818716B8842BCBF081A306206B0BDE836
:103A4000F087F8B504460D4616461F46002077B1AC
:103A500016F8011BA868A047A86030B1E86A401CAE
:103A6000E86200207F1EF3D1F2BD4FF0FF30F2BDBF
:103A700000000000000000006E616E004E414E002C
:103A8000696E6600494E46003000F8B504460D46A2
:103A900016461F4600F043FD3B4632462946204667
:103AA00001B0BDE8F04000F050BD01000278C9B29D
:103AB0008A421AB11CBF10F8012FF9E718BF002085
:103AC00070470A0000F10103810704D010F8011BC0
:103AD00089B18107FAD10268B2F10131914311F045
:103AE000803F04BF50F8042FF6E710F8011B11B116
:103AF00010F8011BFBE7C01A70471E00C9B283070C
:103B000006D0521E22D310F8013B9942F7D11FE094
:103B1000083A13D302F1040241EA012141EA0141CA
:103B200050F8043B121F21BF4B40A3F1013C2CEA8B
:103B3000030C1CF0803FF3D0C9B2001F083210F80C
:103B4000013B521E28BF91EA030FF8D818BF01208D
:103B5000401E704780B500F0E2FC012002BD70B548
:103B600004460D46164600F0DAFC32462946204649
:103B7000BDE8704000F0DCBC62B38B0708D0521E79
:103B800011F8013B00F8013B00F024808B07F6D1CF
:103B9000830740F0208000BF103A07D330B4B1E86B
:103BA0003810103AA0E83810F9D230BC530724BFBF
:103BB000B1E80810A0E8081044BF51F8043B40F8F1
:103BC000043BD20724BF31F8022B20F8022B44BF5C
:103BD0000B7803707047083A07D3B1E80810083A29
:103BE00040F8043B40F804CBF7D25307E4E7010068
:103BF0001B4213D1094236D12AB18446B0FBF2F000
:103C000002FB10C2704700F0C3BCFCD300220023AB
:103C100070470B000200002100207047904271EBBA
:103C2000030CF6D370B5B1FA81F4B3FA83F52C1B0B
:103C3000A340C4F1200532FA05F63343A2405FF0F9
:103C40000046E64002E05B085FEA3202841A71EB4C
:103C5000030524BF204629467641F4D302000B0019
:103C60003000002170BD012ACFD970B5140C20D0CE
:103C7000B1FA81F4B2FA82F5C4F120046419B4F106
:103C80002006D6D3B2405FF00044F440002502E0A5
:103C900052085FEA3303C61A71EB020E24BF3046A6
:103CA000714664416D41F3D302000B0020002900EE
:103CB00070BD0C46B1FBF2F102FB11452D0445EA43
:103CC0001045B5FBF2F402FB145580B240EA0545FD
:103CD000B5FBF2F002FB105240EA044070BD30B474
:103CE000436803F0004201211B031B0B436004BF28
:103CF0000368002B08D10DE00368DD0F45EA44049A
:103D000044605B000360491E4468E302F4D523036A
:103D10001B0B436043681A434260084630BC70473F
:103D20004FF4001C1CEB410F94BF1CEB430F09E048
:103D300041EA030C50EA4C0C52EA0C0C03D29942B3
:103D400008BF9042704714BF8B42824270473000D8
:103D50004FF4001C1CEB410F94BF1CEB430F09E018
:103D600041EA030C50EA4C0C52EA0C0C03D28B4291
:103D700008BF8242704714BF994290427047E001E9
:103D800070B504460D466068C0F30A5040F2FF71FA
:103D9000884207D16068000304BF2068002817D05C
:103DA000022070BD20B92046FFF799FF012866DA8E
:103DB000012D0FDB40F2FF71091A8D420AD36068B2
:103DC000002847BF00202F4900202F49C4E90001E7
:103DD000012070BD4142A942616806DA6FF31E51AD
:103DE000401941EA0050606040E0401E6368451998
:103DF000012205F1350062F31F53352801F000411F
:103E0000636003D361600020206070BD002015F165
:103E10001F0F04DA206823600022203562606A42A6
:103E200012D0401E25688041C2F12003C0439D404E
:103E300045EAD07025686668D54006FA03F32B433F
:103E400023606368D340636062680A43B0F1004F47
:103E5000626003D80DD12078C0070AD52068401CC5
:103E60002060206828B96068401C60604FF0FF3017
:103E700070BD6068884204BF20680028F6D1002029
:103E800070BD00BF0000F0FF0000F07FF446400D61
:103E900040EAC120490006D200F014F8004248BFB1
:103EA0006FF00040604700F00DF84FF0004188428D
:103EB0008CBF084640426047400D40EAC12049009F
:103EC00080F00D8040F00040490DA1F58061491C53
:103ED00005D4D1F11F0154BFC840C01770474FF03F
:103EE00000007047010040F10980F446404200F0B4
:103EF00005F851F000416047010000BF09D0B0FA59
:103F000080F18840C91CC1F58461090501EBD0210D
:103F100040057047F0B44FF0004591EA030F44BFED
:103F20006B4000F037BB00BF841A71EB030604D26C
:103F30006E40001BB141121973414FF4001C1CEB81
:103F4000410F34BF7CEB430684E00C0DA4EB135609
:103F5000362E7DDC012E43DC45EAC32343EA52536F
:103F600012BFD20292025B08240545EAC12141EA50
:103F70005051D2EBC020994125D407D1B0FA80F638
:103F800010FA06F164D00020203608E0B1FA81F67C
:103F9000B140C6F1200220FA02F21143B0404FEACC
:103FA000F474B4EB465434F001064FEA74040AD8B2
:103FB000D6F50016760D04F00044F04061FA06F2E2
:103FC0005040F1404840C00A40EA415021F00041D1
:103FD00028BF5FEA500550F1000044EBD12137E0E3
:103FE00045EAC323DB0A45EAC121C90AB6F1200527
:103FF0000EDD42EA0242120CC5F1200603FA06F673
:10400000EB4042EA06056D42984161F100010DE086
:1040100062FA06F5F240554063FA06FC82EA0C02A9
:10402000F3405A406D42904161EB030111F4801F4F
:1040300005D1641E620502D06D004041494121F462
:104040008011430875F1004350F1000041EB045129
:10405000F0BC70471CEB410F15D223F0004352EA2D
:1040600043060BD04FEA4C0CBCEB410F04D80C0DAF
:10407000661E342EB7DDEBE7801A994150EA4106FF
:1040800008BF0021E4E708BF1CEB430F28BF6FF017
:104090000001DDE7B0B581EA030C0CF0004C40F202
:1040A000FF7515EA11541DBF15EA1357AC42AF4214
:1040B00039E0E41923EA455343F48013C90241F07F
:1040C000004141EA505EC7021100A7FB020200282E
:1040D0004FF00000EEFB01204FF00001E3FB072151
:1040E00018BF42F00102401800214941E3FB0E01D4
:1040F000A4F580640F0302D252004041494154F1BB
:1041000001046CDD470872F1004250F1000051EBF0
:104110000451A1F580115CBF41EA0C01B0BD4CEA2D
:1041200005510020B0BD05EA1357AC4214BFAF42A1
:1041300041E050EA410E1CBF52EA430E02E06146E4
:104140000020B0BD24423C441BD15FEA070EF6D0EC
:10415000090302BF01460020AEF1140EB1FA81F747
:10416000AEEB070401FA07FE0C37C7F1200100FA95
:1041700007F7C8404EEA000E23EA455343F4801384
:10418000A2E733F00043B3FA83F704BFB2FA82FE2A
:1041900077440B3FE41BB7F1200E2FBF02FA0EF35A
:1041A000BB40C7F1200E22FA0EFE38BF43EA0E03D1
:1041B000BA40641C82E750EA410E14BF52EA430E33
:1041C0006FF000014FF4001717EB430F8ABF194639
:1041D00017EB410FB5E74CEA05510020B0BDD4F113
:1041E0000104B4F120070FDAC4F12007520828BFF8
:1041F00042F0010210FA07F501FA07F7E1BF2A437E
:10420000E0403843E1400FE0352C98DCC7F1200452
:1042100052EA400220FA07F218BF42F0010231FAD6
:1042200007F0A1400A43002172F1004250F1000062
:1042300051EB0C01B0BD01002DE9F04140F2FF75DA
:1042400081EA030C0CF0004C15EA11541DBF15EA6D
:104250001357AC42AF42E9E0BC41C1F31301C3F3D1
:104260001303801A994143F4801304D2641E400062
:10427000494180185941C90241EA5051B1FBF3F656
:1042800003FB1611A2FB0675D7EBC020A94102D291
:10429000761E80185941C90241EA5051B1FBF3FE24
:1042A00003FB1E11A2FB0E75D7EBC020A94103D260
:1042B000AEF1010E80185941890241EA905176050C
:1042C00046EA8E2EB1FBF3F603FB1611A2FB067530
:1042D000D7EB8020A94102D2761E80185941C9022D
:1042E00041EA50514EEA060EB1FBF3F603FB1611FC
:1042F000A2FB0675D7EBC020A94102D2761E80181A
:104300005941C90241EA5051B1FBF3F703FB1711C0
:10431000A2FB0735D3EBC020A94167F100070CBF12
:10432000004247F0010766F3D5274FEA1E31B8086F
:1043300014F5806414DDBD0775F1004250EB0E509A
:1043400051EB045111F5801F5CBF41EA0C01BDE83F
:10435000F0814CF07F6141F0E0410020BDE8F08148
:10436000BD076D0840EA0E5041F48011D4F10104FC
:10437000B4F120060ADAC4F120060200E04001FA96
:1043800006F3E1401843B24015430EE0342C14DC30
:10439000C6F1200445EA40056D0820FA06F21543EF
:1043A00021FA06F0A1400D43002175F1004250F1C1
:1043B000000051EB0C01BDE8F08100205FEA0C0128
:1043C000BDE8F081CFB992185B41B3FA83F704BF1F
:1043D000B2FA82F6BF190B3FB7F120062FBF02FADF
:1043E00006F3BB40C7F1200622FA06F638BF334376
:1043F000BA401CB1E419641E2FE77F4231F000413E
:10440000B1FA81F404BFB0FA80F6A4190B3CB4F100
:1044100020062FBF00FA06F1A140C4F1200620FAC1
:1044200006F638BF3143A0403C1B16E7AC421ABF2A
:1044300005EA1357AF4214E050EA41061CBF52EAA6
:104440004306BFE750EA4107304661461CBF41EAD8
:104450000551BDE8F08152EA430C08BFC143BDE8F5
:10446000F08100204FF4001616EB410F98BF16EBB9
:10447000430F08BF16EB410F24BFC14305E016EB05
:10448000430F0CBF61464CEA0551BDE8F0811C00AA
:1044900080B5134800F0E8F80FF24C020FF2440127
:1044A0000160426241600FF24402826381600FF258
:1044B0004402C1600161416181618162C162016345
:1044C0004163C2630164416401BD10B5044800F05A
:1044D000CBF80446206808B9FFF7DAFF204610BD84
:1044E00014010020000000002E00000066616C73C3
:1044F00065000000747275650000000091FBF2F326
:1045000003FB1211C0E900317047140010B50446D6
:10451000DFF8180000F0A8F850F8240010BD80B5AE
:10452000DFF8080000F0A0F8806902BDA4010020B7
:1045300030B430B90FF24800D0E90045C2E9004577
:104540001BE00170012030BC704730B431B90FF26C
:104550003800D0E90045C3E900450EE01AB930BC87
:104560006FF00100704708B10A7802800978481E90
:10457000804130BCC043C00F7047002030BC704742
:10458000000000000000000000000000000000002B
:1045900070470200841A71EB030603D2001BB1417D
:1045A000121973414FF4001C1CEB410F34BF7CEB1C
:1045B000430443E00C0DA4EB1356352E50DC45EAC2
:1045C000C323DB0A45EAC121C912B6F120050DDD7E
:1045D00063FA05F6EB4086EA0305124218BF45F080
:1045E0000105C01851F100010CD213E062FA06F582
:1045F000F2405540F3415A40B340F3405A408018CE
:10460000594107D349085FEA30005FEA350528BF02
:1046100045F0010501F58011420875F1004250F1A5
:10462000000041EB0451F0BC4FF4001C1CEB410FA7
:1046300038BF70470020090D090570471CEB410F7A
:1046400010D252EA43060BD0BCEB410F05D80C0D3B
:10465000AB43661E342EB5DD02E0AB4380185941F2
:10466000F0BC7047F0BC70477047010030B585B0B2
:10467000DFF8700C01F01FF8DFF8680C019054208F
:104680000090022316220221DFF85C0C01F079FA77
:104690000025EDB2042D80F2528103AA4EF660216E
:1046A000DFF8480C006801F0BFFB04009DF80C0027
:1046B000002840F03E812068B0F5806F00F02F8127
:1046C000B0F5805F00F01481B0F5803F00F0E0802D
:1046D000B0F5802F00F0F480B0F1807F18D0B0F1F9
:1046E000007F2DD0B0F1806F42D0B0F1006F57D075
:1046F000B0F1805F6CD0B0F1005F00F08180B0F16C
:10470000804F00F09580B0F1004F00F0A9800FE1DC
:10471000012002A9EDB26854DFF8C80B01900C200B
:1047200000900223EDB20C2000FB05F046300200A1
:10473000D2B20421DFF8B80B01F023FA6D1CA8E710
:10474000022002A9EDB26854DFF8980B01900C200A
:1047500000900223EDB20C2000FB05F04630020071
:10476000D2B20421DFF8880B01F00BFA6D1C90E740
:10477000032002A9EDB26854DFF8680B01900C2009
:1047800000900223EDB20C2000FB05F04630020041
:10479000D2B20421DFF8580B01F0F3F96D1C78E771
:1047A000042002A9EDB26854DFF8380B01900C2008
:1047B00000900223EDB20C2000FB05F04630020011
:1047C000D2B20421DFF8280B01F0DBF96D1C60E7A1
:1047D000052002A9EDB26854DFF8080B01900C2007
:1047E00000900223EDB20C2000FB05F046300200E1
:1047F000D2B20421DFF8F80A01F0C3F96D1C48E7D2
:10480000062002A9EDB26854DFF8D80A01900C2006
:1048100000900223EDB20C2000FB05F046300200B0
:10482000D2B20421DFF8C80A01F0ABF96D1C30E701
:10483000072002A9EDB26854DFF8A80A01900C2005
:1048400000900223EDB20C2000FB05F04630020080
:10485000D2B20421DFF8980A01F093F96D1C18E731
:10486000082002A9EDB26854DFF8780A01900C2004
:1048700000900223EDB20C2000FB05F04630020050
:10488000D2B20421DFF8680A01F07BF96D1C00E761
:10489000092002A9EDB26854DFF8480A01900C2003
:1048A00000900223EDB20C2000FB05F04630020020
:1048B000D2B20421DFF8380A01F063F96D1CE8E692
:1048C000002002A9EDB26854DFF8180A01900C200C
:1048D00000900223EDB20C2000FB05F046300200F0
:1048E000D2B20421DFF8080A01F04BF96D1CD0E6C2
:1048F000EDB2002D00D06D1EDFF8E80901900C200C
:1049000000900223EDB20C2000FB05F046300200BF
:10491000D2B20421DFF8DC0901F033F9B9E65FF027
:10492000FF302060DFF8BC0900F0C5FE002039E050
:10493000AFE6DFF8B00900F0BEFE002032E004224E
:10494000DFF8B419DFF8B40901F030FB002810D10A
:104950000422DFF8AC1902A801F028FB002808D1D6
:104960005FF0FF302060DFF87C0900F0A4FE01203A
:1049700018E00422DFF8841902A801F017FB0028D0
:1049800008D15FF0FF302060DFF8580900F093FE97
:10499000012007E05FF0FF302060DFF8480900F0F9
:1049A0008AFE002005B030BDF0B585B00024DFF8E8
:1049B000340900F080FE0026F6B2042E80F27181E8
:1049C000DFF820090090002322220221DFF83409B9
:1049D00000F060FF0027FFB2F6B2B74213D2DFF853
:1049E000040901900C2000900223FFB20C2000FB70
:1049F00007F046300200D2B20421DFF8F40801F0DB
:104A0000C0F87F1CE7E703AA4FF4FA71DFF8DC086F
:104A1000006801F009FA05009DF80C00002840F03C
:104A20003981002004002868B0F5806F00F02F81E4
:104A3000B0F5805F00F01481B0F5803F00F0E080B9
:104A4000B0F5802F00F0F480B0F1807F18D0B0F185
:104A5000007F2DD0B0F1806F42D0B0F1006F57D001
:104A6000B0F1805F6CD0B0F1005F00F08180B0F1F8
:104A7000804F00F09580B0F1004F00F0A98008E170
:104A8000012002A9F6B27054DFF8580801900C20FA
:104A900000900223F6B20C2000FB06F04630020024
:104AA000D2B20421DFF8480801F06BF8761C83E7E6
:104AB000022002A9F6B27054DFF8280801900C20F9
:104AC00000900223F6B20C2000FB06F046300200F4
:104AD000D2B20421DFF8180801F053F8761C6BE716
:104AE000032002A9F6B27054DFF8F80701900C20F9
:104AF00000900223F6B20C2000FB06F046300200C4
:104B0000D2B20421DFF8E80701F03BF8761C53E746
:104B1000042002A9F6B27054DFF8C80701900C20F7
:104B200000900223F6B20C2000FB06F04630020093
:104B3000D2B20421DFF8B80701F023F8761C3BE776
:104B4000052002A9F6B27054DFF8980701900C20F6
:104B500000900223F6B20C2000FB06F04630020063
:104B6000D2B20421DFF8880701F00BF8761C23E7A6
:104B7000062002A9F6B27054DFF8680701900C20F5
:104B800000900223F6B20C2000FB06F04630020033
:104B9000D2B20421DFF8580700F0F3FF761C0BE7D0
:104BA000072002A9F6B27054DFF8380701900C20F4
:104BB00000900223F6B20C2000FB06F04630020003
:104BC000D2B20421DFF8280700F0DBFF761CF3E601
:104BD000082002A9F6B27054DFF8080701900C20F3
:104BE00000900223F6B20C2000FB06F046300200D3
:104BF000D2B20421DFF8F80600F0C3FF761CDBE632
:104C0000092002A9F6B27054DFF8D80601900C20F2
:104C100000900223F6B20C2000FB06F046300200A2
:104C2000D2B20421DFF8C80600F0ABFF761CC3E661
:104C3000002002A9F6B27054DFF8A80601900C20FB
:104C400000900223F6B20C2000FB06F04630020072
:104C5000D2B20421DFF8980600F093FF761CABE691
:104C6000F6B2002E00D0761EDFF8780601900C20F8
:104C700000900223F6B20C2000FB06F04630020042
:104C8000D2B20421DFF86C0600F07BFF94E600202E
:104C900025E091E6641CA4B2782CFFF68DAE0020CE
:104CA0001DE00422DFF85016DFF8500601F07EF90F
:104CB000002809D10422DFF8481602A801F076F98D
:104CC000002801D101200AE00422DFF8301602A8F2
:104CD00001F06CF9002801D1012000E0002005B0AE
:104CE000F0BD2DE9FF410025DFF8F80500F0E3FCF9
:104CF0000026F6B2042E80F27781DFF8E8050090F6
:104D0000012300220021DFF8000600F0C3FDDFF8D8
:104D1000D4050090002300220221DFF8F00500F006
:104D2000B9FD0027FFB2F6B2B74213D2DFF8B405DF
:104D300001900C2000900223FFB20C2000FB07F032
:104D400046300200D2B20421DFF8A40500F019FFBA
:104D50007F1CE7E703AA4FF4FA71DFF890050068BB
:104D600001F062F804009DF80C00002840F0358145
:104D7000002005002068B0F5806F00F02B81B0F5B1
:104D8000805F00F01281B0F5803F00F0E080B0F568
:104D9000802F00F0F480B0F1807F18D0B0F1007F58
:104DA0002DD0B0F1806F42D0B0F1006F57D0B0F18C
:104DB000805F6CD0B0F1005F00F08180B0F1804F77
:104DC00000F09580B0F1004F00F0A98004E10120CF
:104DD00002A9F6B27054DFF80C0501900C20009087
:104DE0000223F6B20C2000FB06F046300200D2B2DD
:104DF0000421DFF8FC0400F0C4FE761C79E70220F1
:104E000002A9F6B27054DFF8DC0401900C20009087
:104E10000223F6B20C2000FB06F046300200D2B2AC
:104E20000421DFF8CC0400F0ACFE761C61E703201F
:104E300002A9F6B27054DFF8AC0401900C20009087
:104E40000223F6B20C2000FB06F046300200D2B27C
:104E50000421DFF89C0400F094FE761C49E704204E
:104E600002A9F6B27054DFF87C0401900C20009087
:104E70000223F6B20C2000FB06F046300200D2B24C
:104E80000421DFF86C0400F07CFE761C31E705207D
:104E900002A9F6B27054DFF84C0401900C20009087
:104EA0000223F6B20C2000FB06F046300200D2B21C
:104EB0000421DFF83C0400F064FE761C19E70620AC
:104EC00002A9F6B27054DFF81C0401900C20009087
:104ED0000223F6B20C2000FB06F046300200D2B2EC
:104EE0000421DFF80C0400F04CFE761C01E70720DB
:104EF00002A9F6B27054DFF8EC0301900C20009088
:104F00000223F6B20C2000FB06F046300200D2B2BB
:104F10000421DFF8DC0300F034FE761CE9E608200B
:104F200002A9F6B27054DFF8BC0301900C20009087
:104F30000223F6B20C2000FB06F046300200D2B28B
:104F40000421DFF8AC0300F01CFE761CD1E609203A
:104F500002A9F6B27054DFF88C0301900C20009087
:104F60000223F6B20C2000FB06F046300200D2B25B
:104F70000421DFF87C0300F004FE761CB9E6002073
:104F800002A9F6B27054D74801900C200090022379
:104F9000F6B20C2000FB06F046300200D2B204212B
:104FA000D34800F0EEFD761CA3E6F6B2002E00D04A
:104FB000761ECC4801900C2000900223F6B20C2003
:104FC00000FB06F046300200D2B20421C94800F0CE
:104FD000D8FD8EE6002081E18BE66D1CADB2782D08
:104FE000FFF687AE012079E10422C44902A800F04F
:104FF000DDFF002801D0002070E1BA4800F05BFB23
:105000000026F6B2042E80F25D81B648009001239E
:1050100000220021BC4800F03DFCB2480090002373
:1050200000220221BA4800F035FC0027FFB2F6B298
:10503000B74211D2AB4801900C2000900223FFB27E
:105040000C2000FB07F046300200D2B20421A84831
:1050500000F097FD7F1CE9E703AA4FF4FA71A3481B
:10506000006800F0E1FE04009DF80C00002840F00C
:105070002281002005002068B0F5806F00F01881C3
:10508000B0F5805F00F0FF80B0F5803F00F0CF808A
:10509000B0F5802F00F0E180B0F1807F17D0B0F143
:1050A000007F2AD0B0F1806F3DD0B0F1006F50D0BA
:1050B000B0F1805F63D0B0F1005F76D0B0F1804F87
:1050C00000F08980B0F1004F00F09B80F2E00120F9
:1050D00002A9F6B27054834801900C20009002237C
:1050E000F6B20C2000FB06F046300200D2B20421DA
:1050F0007F4800F046FD761C83E7022002A9F6B245
:105100007054784801900C2000900223F6B20C20D5
:1051100000FB06F046300200D2B20421744800F0D1
:1051200030FD761C6DE7032002A9F6B270546D487D
:1051300001900C2000900223F6B20C2000FB06F038
:1051400046300200D2B20421694800F01AFD761CF4
:1051500057E7042002A9F6B27054624801900C206F
:1051600000900223F6B20C2000FB06F0463002004D
:10517000D2B204215E4800F004FD761C41E7052010
:1051800002A9F6B27054574801900C2000900223F7
:10519000F6B20C2000FB06F046300200D2B2042129
:1051A000534800F0EEFC761C2BE7062002A9F6B26D
:1051B00070544C4801900C2000900223F6B20C2051
:1051C00000FB06F046300200D2B20421484800F04D
:1051D000D8FC761C15E7072002A9F6B270544148A6
:1051E00001900C2000900223F6B20C2000FB06F088
:1051F00046300200D2B204213D4800F0C2FC761CC9
:10520000FFE6082002A9F6B27054364801900C203F
:1052100000900223F6B20C2000FB06F0463002009C
:10522000D2B20421324800F0ACFC761CE9E6092039
:1052300002A9F6B270542B4801900C200090022372
:10524000F6B20C2000FB06F046300200D2B2042178
:10525000274800F096FC761CD3E6002002A9F6B29F
:105260007054204801900C2000900223F6B20C20CC
:1052700000FB06F046300200D2B204211C4800F0C8
:1052800080FC761CBDE6F6B2002E00D0761E1548D6
:1052900001900C2000900223F6B20C2000FB06F0D7
:1052A00046300200D2B20421124800F06AFCA8E69F
:1052B000002013E0A5E66D1CADB2782DFFF6A1AE7F
:1052C00001200BE0042602AFDFF830803200390005
:1052D0004046FEF751FC00F0D2FE002004B0BDE8CD
:1052E000F081000058B70020304101081CF0002078
:1052F000CC750108E4750108B08801080CF00020A5
:10530000B88801080485010810850108887D010816
:10531000987D0108002189B280B2814202D200BF8B
:10532000491CF8E7704710B504000020DFF85C1A4C
:1053300008600020DFF8581A0860E00704D5012053
:10534000DFF8501A086003E00020DFF8481A086010
:10535000A00704D50120DFF8401A086003E0002010
:10536000DFF8341A0860600704D50120DFF82C1A32
:10537000086003E00020DFF8241A0860200704D545
:105380000120DFF81C1A086003E00020DFF8101A83
:105390000860E00604D50120DFF8081A086003E081
:1053A0000020DFF8001A0860A00604D50120DFF80D
:1053B000F819086003E00020DFF8EC1908606006C7
:1053C00004D50120DFF8E419086003E00020DFF8CD
:1053D000DC190860200604D50120DFF8D419086024
:1053E00003E00020DFF8C81908600C20FFF792FFE7
:1053F0000120DFF8981908600C20FFF78BFF0020D0
:10540000DFF8881908600C20FFF784FF10BD10B585
:1054100004000020DFF8741908600120DFF870191B
:105420000860E00704D50120DFF86819086003E090
:105430000020DFF860190860A00704D50120DFF81C
:105440005819086003E00020DFF84C190860600775
:1054500004D50120DFF84419086003E00020DFF8DC
:105460003C190860200704D50120DFF834190860D2
:1054700003E00020DFF828190860E00604D50120C9
:10548000DFF82019086003E00020DFF81819086031
:10549000A00604D50120DFF81019086003E0002001
:1054A000DFF804190860600604D50120DFF8FC1855
:1054B000086003E00020DFF8F4180860200604D537
:1054C0000120DFF8EC18086003E00020DFF8E018A6
:1054D00008600C20FFF71EFF0120DFF8B0180860FD
:1054E0000C20FFF717FF0020DFF8A01808600C2041
:1054F000FFF710FF10BD30B583B001A8DFF8B41876
:105500000322FEF739FB02229DF80400A1384FF474
:105510000D619DF80530A13B1824634301FB003168
:10552000684600F0FFFE9DF80000602871D09DF8ED
:10553000000020286DD0002500240020DFF8781816
:1055400008600020DFF87418086000200500ADB284
:10555000082D13DA55F0B800C0B2FFF7E4FE402082
:10556000FFF7E1FE00200400A4B2402C04DAFF2083
:10557000FFF74DFF641CF7E76D1CE8E70020DFF83C
:10558000381808600120DFF8341808600020050092
:10559000ADB2082D13DA55F0B800C0B2FFF7C3FE64
:1055A0004020FFF7C0FE00200400A4B2402C04DA23
:1055B000FF20FFF72CFF641CF7E76D1CE8E70120D4
:1055C000DFF8F41708600020DFF8F017086000200B
:1055D0000500ADB2082D13DA55F0B800C0B2FFF7E0
:1055E000A2FE4020FFF79FFE00200400A4B2402C42
:1055F00004DAFF20FFF70BFF641CF7E76D1CE8E7F8
:105600000120DFF8B41708600120DFF8B017086048
:10561000FEE737BD00B5ADF2046D0020DFF86C1772
:1056200008600020DFF898170860FA20FFF772FE84
:105630000120DFF88C170860FA20FFF76BFE0020CE
:10564000DFF8741708600020DFF870170860C020CA
:10565000FFF769FE3F20FFF766FE0020DFF85817CE
:1056600008600120DFF854170860C020FFF75BFED8
:105670003F20FFF758FE0120DFF83C1708600020AC
:10568000DFF838170860C020FFF74DFE3F20FFF716
:105690004AFE00F01FFE012806D0684600F023F8FD
:1056A000684600F038F8F8E7FFF725FF00F061FBE7
:1056B0000DF2046D00BD10B400231A00D2B2082A06
:1056C0000FDA00231900C9B2C02908DAD2B2C02308
:1056D00003FB0203C9B20024CC54491CF3E7521C5B
:1056E000ECE710BC704710B400231A00D2B2082AAD
:1056F0000FDA00231900C9B2C02908DAD2B2C023D8
:1057000003FB0203C9B2FF24CC54491CF3E7521C2B
:10571000ECE710BC704770B504000025002600209F
:10572000DFF8681608600020DFF894160860FA2099
:10573000FFF7F0FD0120DFF888160860FA20FFF778
:10574000E9FD0020DFF8701608600020DFF86C1615
:105750000860C020FFF7E7FD3F20FFF7E4FD0020D1
:10576000DFF8541608600120DFF850160860C020EA
:10577000FFF7D9FD3F20FFF7D6FD0120DFF83816EF
:1057800008600020DFF834160860C020FFF7CBFD6A
:105790003F20FFF7C8FD0020DFF81C16086000203E
:1057A000DFF81816086000200500ADB2082D18DAE1
:1057B00055F0B800C0B2FFF7B6FD4020FFF7B3FDCB
:1057C00000200600B6B2402E09DAADB2C02000FBC0
:1057D0000540B6B2305CFFF71AFE761CF2E76D1C8E
:1057E000E3E70020DFF8D01508600120DFF8CC15D2
:1057F000086000200500ADB2082D1ADA55F0B80097
:10580000C0B2FFF790FD4020FFF78DFD002006009D
:10581000B6B2402E0BDAADB2C02000FB0540B6B2E6
:10582000301890F84000FFF7F2FD761CF0E76D1C91
:10583000E1E70120DFF8801508600020DFF87C1523
:10584000086000200500ADB2082D1ADA55F0B80046
:10585000C0B2FFF768FD4020FFF765FD002006009D
:10586000B6B2402E0BDAADB2C02000FB0540B6B296
:10587000301890F88000FFF7CAFD761CF0E76D1C29
:10588000E1E70120DFF8301508600120DFF82C1572
:10589000086070BD2DE9F04786B004000D001600C9
:1058A0001F00DDF83880EDB2082D02DAF6B2BA2E0C
:1058B00000DBE9E02078002800F0E6802078A128CD
:1058C00079DAFFB2002F2FD00020814600208246D7
:1058D0005FFA89F9B9F10C0F3EDA5FFA89F9B9F18B
:1058E000060F0EDADFF8DC0421780C225FFA89F962
:1058F00002FB0191085C69465FFA89F909F8010029
:105900000FE0DFF8C00421780C225FFA89F902FB6E
:105910000191085C50F0800069465FFA89F909F846
:10592000010019F10109D3E7002081465FFA89F9E6
:10593000B9F10C0F10DADFF88C0421780C225FFA31
:1059400089F902FB0191085C69465FFA89F909F857
:10595000010019F10109E9E7002082460020814693
:105960005FFA8AFABAF1020F21DA5FFA89F95FFA6F
:105970008AFA1AF1010006214843814512DAF6B28B
:10598000C02E80F28180EDB2C02000FB0580F6B20F
:1059900069465FFA89F919F801103154761C19F13A
:1059A0000109E2E7B61F1AF1010A6D1CD8E7B61D1E
:1059B000AD1E641C7EE72078AA2802DB2078B02880
:1059C00002DB2078F82800DB5EE02078401CA1286C
:1059D00003DB2078401CFF2800DB55E018222078EC
:1059E0005E21637801FB0030DFF8DC130818182112
:1059F00001FB00F1684600F095FCFFB2002F14D0C7
:105A0000002081465FFA89F9B9F1180F0DDA68466E
:105A10005FFA89F919F80000C04369465FFA89F90D
:105A200009F8010019F10109ECE700208246002085
:105A300081465FFA8AFABAF1020F20DA5FFA89F931
:105A40005FFA8AFA1AF101000C214843814511DA04
:105A5000F6B2C02E18DAEDB2C02000FB0580F6B217
:105A600069465FFA89F919F80110315419F10109F1
:105A7000761CE3E70C3E1AF1010A6D1CD9E70C36DF
:105A8000AD1E641C641C15E706B0BDE8F0872DE967
:105A9000F04F85B005000E00170098460E9CDDF80B
:105AA0003C905FF0000BE4B2002C67D0ADB20A2D41
:105AB00002DA0120834616E0ADB2642D02DA02203C
:105AC000834610E0ADB2B5F57A7F02DA0320834653
:105AD00009E0ADB242F21070854202DA042083463A
